{
  "_format": "hh-sol-artifact-1",
  "contractName": "CreditSystem",
  "sourceName": "contracts/CreditSystem.sol",
  "abi": [
    {
      "inputs": [],
      "stateMutability": "nonpayable",
      "type": "constructor"
    },
    {
      "inputs": [
        {
          "internalType": "address",
          "name": "",
          "type": "address"
        }
      ],
      "name": "balances",
      "outputs": [
        {
          "internalType": "uint256",
          "name": "",
          "type": "uint256"
        }
      ],
      "stateMutability": "view",
      "type": "function"
    },
    {
      "inputs": [
        {
          "internalType": "address",
          "name": "account",
          "type": "address"
        }
      ],
      "name": "getBalance",
      "outputs": [
        {
          "internalType": "uint256",
          "name": "",
          "type": "uint256"
        }
      ],
      "stateMutability": "view",
      "type": "function"
    },
    {
      "inputs": [
        {
          "internalType": "address",
          "name": "account",
          "type": "address"
        },
        {
          "internalType": "uint256",
          "name": "amount",
          "type": "uint256"
        }
      ],
      "name": "mint",
      "outputs": [],
      "stateMutability": "nonpayable",
      "type": "function"
    },
    {
      "inputs": [],
      "name": "owner",
      "outputs": [
        {
          "internalType": "address",
          "name": "",
          "type": "address"
        }
      ],
      "stateMutability": "view",
      "type": "function"
    },
    {
      "inputs": [
        {
          "internalType": "address",
          "name": "recipient",
          "type": "address"
        },
        {
          "internalType": "uint256",
          "name": "amount",
          "type": "uint256"
        }
      ],
      "name": "transferCredits",
      "outputs": [],
      "stateMutability": "nonpayable",
      "type": "function"
    }
  ],
  "bytecode": "0x608060405234801561001057600080fd5b50600180546001600160a01b0319163317905561032b806100326000396000f3fe608060405234801561001057600080fd5b50600436106100575760003560e01c806327e235e31461005c57806340c10f191461008f5780638da5cb5b146100a4578063f8b2cb4f146100cf578063fb97033e146100f8575b600080fd5b61007c61006a366004610267565b60006020819052908152604090205481565b6040519081526020015b60405180910390f35b6100a261009d366004610289565b61010b565b005b6001546100b7906001600160a01b031681565b6040516001600160a01b039091168152602001610086565b61007c6100dd366004610267565b6001600160a01b031660009081526020819052604090205490565b6100a2610106366004610289565b6101a9565b6001546001600160a01b031633146101785760405162461bcd60e51b815260206004820152602560248201527f4f6e6c7920746865206f776e65722063616e2063616c6c20746869732066756e60448201526431ba34b7b760d91b60648201526084015b60405180910390fd5b6001600160a01b038216600090815260208190526040812080548392906101a09084906102c9565b90915550505050565b336000908152602081905260409020548111156101ff5760405162461bcd60e51b8152602060048201526014602482015273496e73756666696369656e74206372656469747360601b604482015260640161016f565b336000908152602081905260408120805483929061021e9084906102e2565b90915550506001600160a01b038216600090815260208190526040812080548392906101a09084906102c9565b80356001600160a01b038116811461026257600080fd5b919050565b60006020828403121561027957600080fd5b6102828261024b565b9392505050565b6000806040838503121561029c57600080fd5b6102a58361024b565b946020939093013593505050565b634e487b7160e01b600052601160045260246000fd5b808201808211156102dc576102dc6102b3565b92915050565b818103818111156102dc576102dc6102b356fea2646970667358221220195faf319432f00c8702e97faa4fb83e812b4a979ff6048cc3f7382cac466a7c64736f6c63430008120033",
  "linkReferences": {},
  "deployedLinkReferences": {}
}